:020000040800F2
:100000005005002045010008F30F0008510E0008BC
:10001000F10F0008350A0008411600080000000032
:1000200000000000000000000000000011120008A5
:100030006B0B0008000000006D100008C9120008DA
:100040005F0100085F0100085F010008B9110008A6
:100050005F0100085F0100085F0100085F01000800
:100060005F0100085F0100085F0100085F010008F0
:100070005F0100085F0100085F0100085F010008E0
:100080005F0100085F0100085F0100085F010008D0
:100090005F0100085F0100085F0100085F010008C0
:1000A0005F0100085F0100085F0100085F010008B0
:1000B0005F0100085F0100085F0100085F010008A0
:1000C0005F0100085F0100085F0100085F01000890
:1000D0005F010008C9130008091400085F01000847
:1000E0005F0100085F0100085F0100085F01000870
:1000F0005F0100085F0100085F0100085F01000860
:100100005F0100085F0100085F0100085F0100084F
:100110005F0100085F0100085F0100085F0100083F
:100120005F0100085F0100085F0100085F0100082F
:10013000DFF80CD000F0C8FB004800479121000810
:10014000500500200648804706480047FEE7FEE7C6
:10015000FEE7FEE7FEE7FEE7FEE7FEE7FEE7FEE777
:100160007913000831010008F0B480EA0102D40FCD
:100170004200B2EB410F02D20246084611464A0045
:1001800042D0C30DDDB2C1F3C752AD1A202D35DA0E
:10019000C1F3160141F4000204B15242C5F1200638
:1001A00002FA06F12A411044B3EBD05F23D0C4B168
:1001B000012DA0EBC35009DCF0BC4FF0004202EA75
:1001C000C352DBB200F5000000F054BA400000F169
:1001D000807000EBC350A0F1807040EAD1704900FC
:1001E00009E0490841EAC071A0EBC35000F50000E6
:1001F000400800EBC350F0BC00F033BA614201226A
:1002000002EB4101001BF6E7F0BC704781F00041B2
:10021000AAE780F00040A7E780EA010210B502F0EB
:100220000043400022D04A001FD0010E01EB1261B2
:10023000C0F35600C2F3560240F4000042F400023C
:10024000A0FB022000047F39140400D0401C50EAB7
:10025000124001D44000491EC2B20C0604EBD0107B
:10026000401C4008802A02D003E0002010BD20F08E
:100270000100002900DA0020184310BD30B480EAE4
:10028000010202F0004530F0004221F0004013D09E
:1002900090B1C30DD40DC2F31601C0F31600E41AD9
:1002A00041F4000140F400027D34914201D3641C0A
:1002B00000E04900002C02DA30BC002070474FF407
:1002C00000000023914201D3891A034340084FEAFA
:1002D0004101F7D151B1914202D14FF0004105E007
:1002E00002D24FF0010101E06FF0010103EBC450B5
:1002F000284430BC00F0B5B92DE9FE4F804681EAB4
:100300000300C00F0C46009021F0004123F000458F
:10031000B8EB0200A94105D24046214690461C4652
:100320000B46024623F00040104347D0270DC7F389
:100330000A00C3F30A510290401A019040286BDA78
:10034000C3F3130040F4801B0098924620B10023B1
:10035000D2EB030A63EB0B0B01985946C0F1400244
:10036000504600F05DF906460D4650465946019A42
:1003700000F065F910EB08006141002487EA115292
:1003800084EAE7731A4340D0009A62B3019A012AC3
:100390004FEA075215DC001B61EB02014FF00042EF
:1003A00002EA0752CDE90042001C41F580113246B5
:1003B0002B4600F09CF903B0BDE8F08F4046214683
:1003C000F9E7001B61EB0201001C41F580130018E6
:1003D0005B412018A2F5001747EB030140EAD570F6
:1003E000B6196D4111E06D084FEA360645EAC07551
:1003F0004FEA0752001B61EB0201001C41F580111E
:1004000049084FEA30000019514132462B4603B0EB
:10041000BDE8F04F00F05CB90098012240000023D5
:10042000D0EB020263EBE073009821464FEAE074E0
:10043000B8EB000061EB0401E9E783F000435BE700
:1004400081F0004158E72DE9FE4F81EA030404F0F2
:10045000004421F0004100944FF0000B23F00043D2
:1004600050EA01045ED052EA03045BD0C3F30A549D
:10047000C1F30A552C44A4F2F3340194A0FB0254B6
:10048000C1F3130141F48011C3F3130343F4801348
:1004900001FB024400FB034E840A970A44EA81549C
:1004A00047EA8357A4FB076802958D0A05FB078579
:1004B0004FEA932C04FB0C542705029D4FEA065883
:1004C00047EA1637B5EB08056EEB070C870E920E60
:1004D00047EA811742EA8312A7FB0201B6EB0B0140
:1004E00064EB00042B0D43EA0C335E1844EB1C5004
:1004F000DA465146E7FB0201C5F313044FEA0B331A
:1005000043EA14534FEA0432019C43EA0603A4F180
:100510000C040294009CCDE900B400F0E8F803B0AC
:10052000BDE8F08F00200146F9E79623002211462E
:1005300000F0A0B800F0004230F000400AD0C10D39
:1005400001F56071C0F3160042EA0151C20840078C
:100550001143704700200146704701F0004330B45A
:1005600021F0004150EA010206D00A0DA2F56072A6
:10057000C1F31301002A02DC30BC00207047440F95
:1005800044EAC104C100E01830BC00EBC25000F0E6
:1005900068B830B50B46014600202022012409E04E
:1005A00021FA02F59D4205D303FA02F5491B04FA2C
:1005B00002F52844151EA2F10102F1DC30BD2DE93F
:1005C000F05F0546002092469B46884606468146D7
:1005D00040241BE0284641464746224600F086F963
:1005E00053465A46C01A914110D311461846224626
:1005F00000F016F82D1A67EB01084F46224601203D
:10060000002100F00DF817EB00094E41201EA4F167
:100610000104DFDC484631462A464346BDE8F09FE8
:10062000202A04DB203A00FA02F1002070479140B2
:10063000C2F1200320FA03F3194390407047202AA7
:1006400006DBCB17203A41FA02F043EAE07306E0FA
:1006500041FA02F3D040C2F120029140084319460A
:1006600070470029A8BF7047401C490008BF20F010
:100670000100704710B4B0FA80FC00FA0CF050EAA8
:10068000010404BF10BC704749B1CCF1200421FA29
:1006900004F411FA0CF118BF012121430843A3EB24
:1006A0000C01CB1D4FEA00614FEA102042BF002031
:1006B00010BC704700EBC35010440029A4BF10BC0D
:1006C0007047401C490008BF20F0010010BC704773
:1006D00010B5141E73F1000408DA401C41F100014A
:1006E00092185B411A4301D120F0010010BD2DE9A1
:1006F000F04D92469B4611B1B1FA81F202E0B0FA98
:1007000080F220329046FFF78BFF04460F4640EA06
:100710000A0041EA0B0153465A46084313D01146DA
:1007200053EA010019D0C8F14002504600F0DEF84B
:1007300005460E46504659464246FFF771FF0843AC
:1007400005D0012004E020463946BDE8F08D0020A8
:10075000054346EAE0762C4337430A986305E40AEA
:10076000A0EB08000022FD0A44EA47540A3002D5F3
:1007700000200146E9E7010510196941DDE9084556
:1007800000196941BDE8F04DA2E72DE9F04D81EA7D
:10079000030404F0004B21F0004514464FF0000A1A
:1007A00023F0004150EA050220D054EA01021DD096
:1007B000C5F30A570246C5F31303C1F31300C1F38F
:1007C0000A5640F4801543F48013A7EB0608101B6B
:1007D000D64608F2FD3873EB050002D308F1010894
:1007E00001E092185B41B8F1000F03DA00200146E6
:1007F000BDE8F08D00204FF48011064684460EE0DF
:10080000171B73EB050705D3121B63EB05030643A8
:100810004CEA010C49084FEA300092185B4150EA5B
:100820000107EDD152EA030012D082EA040083EA04
:100830000501084305D0101BAB4106D2012200235D
:1008400006E000224FF0004302E06FF00102531077
:100850001AEB06004CEB085110EB0A0041EB0B01C0
:10086000BDE8F04DFFF734BFC1F30A52C1F31301E5
:1008700040F2FF3341F480119A4202DA002001462F
:10088000704740F233439A42A2F2334202DC5242B2
:1008900000F02CB8FFF7C4BE30B5041E71F100049F
:1008A00004DB4FF00044404264EB0101141E73F17D
:1008B000000405DB1C464FF00043524263EB040387
:1008C000994208BF904230BD064C074D06E0E068F3
:1008D00040F0010394E8070098471034AC42F6D387
:1008E000FFF72AFCC82A0008E82A0008202A04DBAF
:1008F000203A21FA02F00021704721FA02F3D04099
:10090000C2F12002914008431946704700298168CE
:1009100002D041F0010101E021F001018160704746
:100920000029816802D041F4807101E021F48071D6
:1009300081607047014600208968490700D5012081
:100940007047014600208968090700D501207047DB
:1009500010B542680E4B0C791A400B6842EA04222B
:100960001343436083680B4A1340D1E90242224398
:100970004C7943EA44031A438260C26A097C22F438
:100980007002491EC9B242EA0151C16210BD0000A5
:10099000FFFEF0FFFDF7F1FF70B5072409290AD922
:1009A000C568A1F10A0606EB4606B440A543B3406C
:1009B0001D43C56007E0056901EB4106B440A5434E
:1009C000B3401D4305611F23072A09D2446B521E01
:1009D00002EB820293409C4391400C43446370BD00
:1009E0000D2A09D2046BD21F02EB820293409C4372
:1009F00091400C43046370BDC46A0D3A02EB82025D
:100A000093409C4391400C43C46270BD816841F0A7
:100A10000801816070470029816802D041F4A0017B
:100A200001E021F4A00181607047816841F0040178
:100A300081607047FEE70029016802D041F00101A2
:100A400002E04FF6FE7211400160704701684FF6F8
:100A5000FE72114001600021016041608160C1604F
:100A60003149314A0839904203D1486840F00F00BB
:100A700006E02D4A1432904204D1486840F0F0005C
:100A800048607047284A2832904203D1486840F4B1
:100A90007060F5E7244A3C32904203D1486840F444
:100AA0007040EDE7204A5032904203D1486840F44C
:100AB0007020E5E71C4A6432904203D1486840F454
:100AC0007000DDE7184A7832904203D1486840F060
:100AD0007060D5E7154A111F904203D1086840F0B5
:100AE0000F0006E0114A1432904204D1086840F029
:100AF000F000086070470D4A2832904203D1086820
:100B000040F47060F5E7094A3C32904203D108682E
:100B100040F47040EDE7054A50329042EAD108684F
:100B200040F47020E5E7000008000240080402409D
:100B300030B5036847F6F07293430C6A8A68224323
:100B4000D1E904452C4322438C692243CC692243DA
:100B50004C6A22438C6A22431A430260CA6842608C
:100B60000A6882604968C16030BD7047194A1A49F5
:100B7000904203D18869C0F380007047174A9042C1
:100B800003D18869C0F3C0007047154A904203D171
:100B90008869C0F300107047124A904203D18869F7
:100BA000C0F340107047104A904203D18869C0F3E7
:100BB000801070470D4A904203D18869C0F3C0107D
:100BC00070470B4A904203D18869C0F300207047F8
:100BD000002070470008014000100240000C014056
:100BE000001001400014014000180140001C0140A9
:100BF00000200140F0B5CA78002502F00F03D206AC
:100C000001D58A7813430A784FF00F0E12F0FF0FC8
:100C10004FF001021CD004680F8802FA05F6374035
:100C2000B74211D14FEA850C0EFA0CF724EA0707F8
:100C300003FA0CF43C43CF78282F02D0482F02D07F
:100C400002E0466100E006616D1C082DE4D30460FB
:100C50000C88FF2C1ED944685FF0000606F10807D7
:100C600002FA07F50F882F40AF420FD14FEA860CEA
:100C70000EFA0CF7BC4303FA0CF73C43CF78282F4D
:100C800000D14561CF78482F00D10561761C082E30
:100C9000E4D34460F0BDF0B51F4616460D46044649
:100CA0000F2901D90020F0BDFFF760FF18B901211D
:100CB000204600F021F86FB90120A840022E02D092
:100CC000032E03D006E0E168814302E0E1680226DA
:100CD0000143E160082D01D3241D083D2168A800CF
:100CE0000F2282409143216047EA860181402068BB
:100CF000014321600120F0BDF0B5304A304B314C4A
:100D0000314D324E324FDFF8CCC0DFF8CCE051B37A
:100D1000704503D1906940F0040004E0984204D18A
:100D2000906940F008009061F0BDA04203D1906945
:100D300040F01000F7E7A84203D1906940F020008E
:100D4000F1E7B04203D1906940F04000EBE7B842D0
:100D500003D1906940F08000E5E76045E4D19069F7
:100D600040F48070DFE7704503D1906920F0040003
:100D7000D9E7984203D1906920F00800D3E7A04258
:100D800003D1906920F01000CDE7A84203D190690B
:100D900020F02000C7E7B04203D1906920F0400066
:100DA000C1E7B84203D1906920F08000BBE76045FD
:100DB000BAD1906920F48070B5E7000000100240BD
:100DC000000C0140001001400014014000180140D7
:100DD000001C0140002001400008014010B5194CE2
:100DE00001212046FFF788FF012300220821204629
:100DF000FFF751FFA015206101212046FFF77CFF7E
:100E00000123002209212046FFF745FF4FF0007023
:100E100020610D4C01212046FFF76EFF00230322C5
:100E20000D212046FFF737FF084C01212046FFF730
:100E300063FF00232046BDE8104003221946FFF758
:100E40002ABF0000000C01400010014000080140D2
:100E5000FEE710B5012000F0BDF8BDE81040052008
:100E600001F0D2B810B5074C4FF480602061032028
:100E700001F0D6F84FF080602061BDE810403220CC
:100E800001F0CEB800100140F8B50121102000F0AB
:100E900007F94FF4E050ADF8000010240A4E8DF829
:100EA000034003258DF8025069463046FFF7A2FE45
:100EB0000F20ADF800008DF803408DF80250694610
:100EC0003046FFF797FEF8BD0010014010B560B145
:100ED000C031CCB2012001F097F8204600F07AF83A
:100EE000BDE81040052001F08FB88031F1E7000027
:100EF00010B5FFF7C9FF184C4FF080702061C0009B
:100F00002061002000F042F8282001F07DF8200444
:100F10002061032000F03AF8FFF7A4FF052001F05C
:100F200073F8FFF79FFF642001F07AF8FFF79AFF4C
:100F3000022000F02BF8FFF795FF282000F04AF878
:100F40000C2000F047F8062000F044F8FFF781FF7E
:100F5000A015206110BD00000010014010B5044C28
:100F60004FF48051216100F035F82004206110BD5C
:100F70000010014010B5044603E000BFFFF7EEFF8C
:100F8000641C20780028F9D110BD00001049C30767
:100F90004FF0010205D00A614208D20704D00222B4
:100FA00004E04FF48032F6E74FF400320A61820821
:100FB000D20701D0042201E04FF480220A61C00868
:100FC000C00701D0082001E04FF4002008617047FD
:100FD0000010014010B504460009FFF7D7FFFFF7E6
:100FE00041FF2046FFF7D2FFBDE81040FFF73ABFB0
:100FF000FEE7704770B50F23C47801780122F4B181
:10100000144C2468457804F4E064C4F5E064240AD0
:10101000C4F10406E3408478B5401C402C4301F140
:10102000E021230181F80034007800F01F018A409C
:101030004009800000F1E020C0F8002170BD01F0FF
:101040001F0082404809800000F1E020C0F88021A4
:1010500070BD00000CED00E0024908430249086041
:10106000704700000000FA050CED00E0704700003A
:10107000044A0029516901D0014300E081435161D4
:101080007047000000100240044A0029D16901D0D5
:10109000014300E08143D16170470000001002402D
:1010A000044A0029916901D0014300E08143916124
:1010B00070470000001002400248416A41F0807110
:1010C000416270470010024030B51F494A6812F073
:1010D0000C031E4A03D0042B01D0082B21D0026040
:1010E0004A680F231A4C03EA1212A35C0268DA4022
:1010F00042604B68072505EA1323E35C22FA03F3F9
:1011000083604B6805EAD323E35CDA40C260496838
:10111000032303EA9131231F595CB2FBF1F1016112
:1011200030BD4A684B6802F470124FF0020413F4A9
:10113000803F04EB924202D04B689B0301D5054BE4
:1011400000E0024B5A43CAE70010024000127A0046
:101150008100002000093D00024600205309094992
:10116000012B0BD0022B0BD0D1F8241002F01F0260
:10117000012393400B4200D0012070470968F5E736
:10118000096AF3E70010024002490A8882430A8094
:10119000704700000428004006490988C2B2114087
:1011A000044A121F1288024202D009B1012070477E
:1011B000002070470428004010B50120FFF7ECFF25
:1011C000002818D00120FFF7DFFF0B48817841B1DC
:1011D00000218170CB0709494FF0010203D08B1524
:1011E00003E00121F5E74FF080730B614260BDE839
:1011F000104000F005B810BD00000020000C0140B8
:10120000024801888906FCD5704700000428004088
:10121000704700000CB5002126480191009102683A
:1012200042F4803202604FF4A063026802F400329C
:101230000092019A521C0192009A12B9019A9A42A4
:10124000F3D10268920333D5012100911A490A684B
:1012500042F010020A600A6822F003020A600A687B
:1012600042F002020A6041684160416841604168A1
:1012700041F480614160416821F47C114160416822
:1012800041F4E8114160016841F08071016001683A
:101290008901FCD5416821F003014160416841F0BA
:1012A000020141604168C1F381010229FAD10CBDFC
:1012B00000910CBD0010024000200240014B83E869
:1012C000070070472400002010488168491E816093
:1012D000C168012902D9C168491EC160416901295B
:1012E00002D94169491E41618169012902D9816997
:1012F000491E81610169012902D90169491E016103
:1013000003480168491C016070470000000000208C
:1013100058000020144910B54868144A10F00C0316
:10132000134803D0042B01D0082B0AD0026049686F
:101330000F4AC1F30311121D515C0268CA400260DA
:1013400010BD4A684B6802F470124FF0020413F4A7
:10135000803F04EB924202D04B689B0301D5054BC2
:1013600000E0024B5A43E1E70010024000127A000D
:101370009400002000093D000F4810B5016841F0BD
:101380000101016041680D4A1140416001680C4A49
:1013900011400160016821F480210160416821F45D
:1013A000FE0141604FF41F018160FFF733FF0549E3
:1013B0004FF00060086010BD001002400000FFF810
:1013C000FFFFF6FE08ED00E010B540F225510B4896
:1013D00000F0A5F800280FD00848001D0188084833
:1013E00032224261074B02789954521CD1B20170EB
:1013F000142901D10021017010BD00000038014006
:1014000000000020C000002010B540F22551104817
:1014100000F085F8002813D00E4801780C48001D14
:1014200001290ED001880C48322282610B4B427890
:101430009954521CD1B24170142901D1002141703C
:1014400010BD0088BDE81040C0B200F069BE0000C9
:10145000004400407C00002000000020D400002058
:1014600030B585B00020ADF80400ADF80600ADF849
:101470000800ADF80C000C20ADF80A004FF4E13084
:10148000012100904804FFF7FFFD1A4C012120467E
:10149000FFF732FC0125A804206102220323114634
:1014A0002046FFF7F8FB0023012203212046FFF727
:1014B000F2FB114C6946204600F068F8012240F228
:1014C0002551204600F04AF80121204600F016F888
:1014D0004FF4E060FFF7C0FD26208DF810000320D8
:1014E0008DF812008DF8135004A8FFF783FD05B0A6
:1014F00030BD0000000801400044004000298189FF
:1015000002D041F4005101E021F400518181704783
:101510000246002012880A4200D00120704730B5F0
:1015200001F01F0201240025C1F3421304FA02F264
:10153000012B0FD0022B0FD0838A4FEA1121008894
:10154000134204FA01F400EA040001D000B10125BD
:10155000284630BD8389F0E7038AEEE710B5C1F372
:10156000421301F01F040121A140012B07D0022BDF
:1015700007D01430002A026805D00A4304E00C307A
:10158000F8E71030F6E78A43026010BD30B5044634
:10159000008A85B00D464CF6FF710840E98801438A
:1015A0002182A1894EF6F3100140A8882A891043B0
:1015B0006A890A431043A081A08A4FF6FF41084080
:1015C000A9890143A1826846FFF77EFD194884423C
:1015D00001D1039800E00298A189090400EBC00141
:1015E00001EB0010296801D5490000E08900B0FB3B
:1015F000F1F06422B0FBF2F109010B096FF018055C
:101600006B4300EB8300A3891D044FF0320306D522
:1016100003EBC000B0FBF2F000F0070005E003EBC5
:101620000010B0FBF2F000F00F000843208105B07D
:1016300030BD000000380140C1F3080181807047CF
:10164000FEE70000024900F07F00086070470000DC
:10165000002C00400FB4054B10B503A9044A0298B2
:1016600000F0CAF810BC5DF814FB00003920000837
:10167000A800002002E008C8121F08C1002AFAD101
:1016800070477047002001E001C1121F002AFBD102
:10169000704700002DE9FF5FDDE90220010DDDF854
:1016A00038B0024318D044F61050A1F2FF31414344
:1016B0000D140F98012820D0A5EB0B00401C5FEA09
:1016C000000A4FF00004474EDFF81C91A046504638
:1016D00016D5CAF1000728E00F98012443A201287B
:1016E00008D0002100980F9BC0E90021C0E9024307
:1016F000BDE8FF9F6FEA0B01F4E7CBF10000DEE7E6
:10170000074612E0F80707D02246334640464946CE
:10171000FEF799FE80468946224633461046194612
:10172000FEF791FE04460E467F10002FEAD1DDE958
:101730000201BAF1000F42464B4602DAFEF783FE81
:1017400001E0FFF722F804460E460022284BFFF77F
:10175000A3F803D84FF0FF30014607E00022254BE5
:1017600020463146FEF7C8FDFFF77EF8102409E059
:10177000002C0ADB0A220023FEF721FF019B3032F6
:101780001A55641E50EA0102F2D1641C019AC4F198
:10179000110314440F9A012A03D0012208430DD1EA
:1017A0000AE0084304D000204FF0110B0F9080E7AF
:1017B000A3EB0B056D1E0DE05B4504DD4FF0000251
:1017C00005F1010504E003DA4FF00002A5F101057F
:1017D000002AECD000980F99C0E90231C0E9004519
:1017E00086E70000000024400000F03F30000000C9
:1017F0000000F0430000E03F2DE9FF4F95B09B460D
:101800008946064600250FE2252877D10024274681
:10181000F84A0121059400E0044316F8013F203BFB
:1018200001FA03F01042F7D130782A2811D06FF076
:101830002F033078A0F13002092A16D8059A44F017
:10184000020402EB820203EB42021044761C059074
:10185000EFE759F8042B0592002A03DA504244F4CA
:101860000054059044F00204761C30782E2816D1DE
:1018700016F8010F44F004042A280DD06FF02F024F
:101880003078A0F13003092B09D807EB870302EB6E
:101890004303C718761CF3E759F8047B761C3078AD
:1018A0006C280FD006DC4C2817D068280DD06A2889
:1018B00014D104E0742810D07A280FD10DE044F43C
:1018C00000140AE044F4801401E044F440147278F7
:1018D000824202D104F58014761C761C307866288A
:1018E0000BD013DC582877D009DC002875D04528A8
:1018F000F6D04628F4D047281AD19DE118E0632895
:1019000035D0642879D0652812D195E1702873D03C
:1019100008DC6728F1D069286FD06E280DD06F28B9
:1019200006D1B5E073282CD0752875D0782874D0EE
:101930005A46179990476D1C75E1C4F3025002286E
:1019400009D003280DD0D9F8001004280DD00D605F
:1019500009F1040967E1D9F80010EA17C1E900525A
:10196000F6E7D9F800100D80F2E70D70F0E719F8EE
:10197000041B8DF8001000208DF80100EA460120BC
:1019800003E059F804AB4FF0FF3061074FF000015E
:1019900002D40DE008F101018846B9420FDA804512
:1019A000F8DB1AF808100029F4D108E008F1010169
:1019B00088468142FADB1AF808100029F6D105980A
:1019C0005B46A0EB080721463846179A00F094FAC8
:1019D000284400EB080507E04DE029E10DE01AF886
:1019E000010B5A4617999047B8F10108F7D25B46A8
:1019F00021463846179A13E142E00A220092C4F3C6
:101A000002524FF0000A022A08D059F804CB032AE8
:101A10004FEAEC710AD00DE029E02AE009F1070154
:101A200021F00702F2E802C1914609E00FFA8CFCAE
:101A30004FEAEC71042A03D14FFA8CFC4FEAEC71A7
:101A4000002907DA0A460021DCF1000C61EB0201F3
:101A50002D2202E0220504D52B228DF8042001223C
:101A600003E0E20701D02022F7E7904659E00A217F
:101A700002E010220DE010214FF0000A00910BE06F
:101A800010224FF0000A44F004040827009203E0FB
:101A900008224FF0000A0092C4F30252022A05D035
:101AA00059F804CB0021032A08D009E009F1070105
:101AB00021F00702F2E802C1914605E01FFA8CFC12
:101AC000042A01D10CF0FF0C4FF00008220728D5A2
:101AD000702806D0009B83F0100353EA0A0305D058
:101AE0000EE040228DF80420012208E05CEA0102A9
:101AF00006D030228DF804208DF805000222904691
:101B0000009B83F0080353EA0A030AD15CEA01024E
:101B100001D1620705D530228DF804204FF001086D
:101B20007F1E582804D034A003900EA802900DE028
:101B300036A0F9E753466046009AFEF740FD84461A
:101B40000398825C0298401E029002705CEA0100D9
:101B5000F0D1029806A9081A00F1200A600702D500
:101B600024F4803400E00127574502DDA7EB0A008A
:101B700000E0002000EB0A01009005984144401A63
:101B80000590E00306D45B462146179A059800F0BD
:101B9000B3F90544002706E001A85A46C05D17992D
:101BA00090476D1C7F1C4745F6DBE0030CD55B4678
:101BB0002146179A059800F09FF9054404E030206B
:101BC0005A46179990476D1C0099481E00900029AD
:101BD000F5DC08E0029802995A460078491C029107
:101BE000179990476D1CBAF10001AAF1010AF1DCC6
:101BF00065E10000092801003031323334353637D1
:101C00003839616263646566000000003031323348
:101C100034353637383941424344454600000000E8
:101C200000F058F90544761C307800287FF4ECADBC
:101C300019B02846BDE8F08F620700D4062709F1E5
:101C4000070222F0070CFCE80223E14603F00048FB
:101C50005FEA080C02D00FF2702C0DE05FEA045C22
:101C600002D50FF2682C07E05FEAC47C02D00FF2C5
:101C7000602C01E0AFF2700C4FF0FF3823F000430E
:101C8000CDF850C065280CD006DC452809D0462880
:101C90001DD047283DD13DE0662818D067287ED169
:101CA00038E00021112F01DB112000E0781CCDE984
:101CB000000106A90EA8FFF7EDFCDDE90F010E9A61
:101CC00003910021009207F1010A04914DE04FF0C9
:101CD00000400097CDE9011006A90EA8FFF7DAFC35
:101CE000DDE90F0203920E9B11990022DDF80CA092
:101CF0000093049211B9791C00EB010AB7EB0A00BA
:101D000004D4C0F1FF3007F1010A0490AAEB0700E8
:101D1000019044E0012F00DA01270021112F01DD9D
:101D2000112000E03846CDE9000106A90EA8FFF712
:101D3000B1FCDDE90F010E9A03910021049100929C
:101D4000BA4621070CD40399514500DA8A46BAF104
:101D5000010F05DD009AAAF10101515C302908D07C
:101D6000B84202DA10F1040F06DA0121CDE90110C0
:101D700015E0AAF10101E9E7002805DC0499014416
:101D80000491AAEB000102E0411C514500DD8A46A6
:101D90000499401A401C01904FF000400290200727
:101DA00004D40198504501DBCDF8048000208DF863
:101DB0004F0002980DF14F07B0F1004F25D02B20B6
:101DC0000E9002984FF0020800280CDA4042029070
:101DD0002D200E9007E00A210298FEF7DAFB303141
:101DE000029007F8011DB8F10001A8F10108F2DC2A
:101DF00002980028EFD1791E0E980870307800F014
:101E0000200040F0450007F8020D12A8C01B00F1A9
:101E100007081498007800B1012000EB0A0101982E
:101E200001EBE07105984144401A401E0590E00323
:101E300006D45B462146179A059800F05DF80544E4
:101E40001498007818B15A46179990476D1CE00312
:101E500024D55B462146179A059800F04DF80544B5
:101E60001CE00498002807DBDDE90301884203DD5C
:101E70000098405C179901E0179930205A46904726
:101E8000049805F10105401C04900198401E019042
:101E900004D12E205A46179990476D1CBAF10001C3
:101EA000AAF1010ADDDC05E017F8010B5A46179983
:101EB00090476D1CB8F10001A8F10108F4DC5B4605
:101EC0002146179A0598ABE62D0000002B00000074
:101ED000200000002DE9F041044600251E4617466B
:101EE000880404D405E039462020B0476D1C641EE8
:101EF000F9D52846BDE8F0812DE9F04104460025DA
:101F00001E469046C80301D5302700E020278804EC
:101F100004D505E041463846B0476D1C641EF9D52E
:101F20002846BDE8F081000070B5012192B0084656
:101F3000FFF79EF801214802FFF7B2F80220ADF842
:101F4000400000248DF8434010A92B48FEF752FEB4
:101F50002A4E3046FEF77AFD29480090294801A90B
:101F6000012581E8310028020494CDE90540800074
:101F70000790202008900002CDE909046946304608
:101F8000FEF7D6FD01213046FEF755FD8DF83050A5
:101F90000B948DF831504FF46020CDE90D04184CAE
:101FA0008DF83C504C3C0BA92046FEF7D1FC012299
:101FB000052311462046FEF7EFFC01212046FEF7DF
:101FC000AFFC01212046FEF7A1FC2046FEF71EFDD6
:101FD0002046FEF7B6FC0028FAD12046FEF725FD84
:101FE0002046FEF7A7FC0028FAD101212046FEF783
:101FF00012FD12B070BD0000000801400800024050
:102000004C2401403C00002001B581B041F2DA616E
:10201000019848430090002801D0401EFAE70CBD0B
:1020200001B581B00198C0EBC0000090002801D03C
:10203000401EFAE70CBD000070B5074D0446402174
:102040002846FFF765FA0028F9D0E1B22846FFF7E5
:10205000F3FA204670BD00000044004010B5FFF7C1
:102060008BF9FFF757F922484FF47A710068B0FBFB
:10207000F1F0401EB0F1807F16D24FF0E0214861B0
:102080001C4AF02082F8140D0020886107200861A6
:10209000FEF7A4FE7E20FFF75FF8174928B1481528
:1020A0000861FFF709F803E0FEE74FF000700861F0
:1020B000FFF73AFFFFF7D4F90120FFF7A5FF0F481C
:1020C000FFF702F8FEF714FFFEF7C3FE0CA0FEF7C1
:1020D00051FF00210120FEF7F9FE0DA0FEF74AFF97
:1020E0004FF08040BDE810400C4A0146FFF7E6B8CB
:1020F000940000200FE000E0000C0140AC00002044
:102100004D61726B6574206973204F50454E00001D
:1021100020696E206C6F76653F0000006F12833A75
:10212000194A10B50346907800282BD1D07817496A
:1021300020B101280ED0022810D01BE0124C4FF61F
:10214000FF70083420800B700120D0700020487090
:10215000C8700FE08B700220D0700BE048784028E8
:1021600001D33F204870C2B20848001D135448787C
:10217000401C4870012000F033F8BDE810401846BC
:1021800000F010B810BD00004C000020E800002056
:10219000FFF764FF7F20FFF755FA00F0C3FA00F065
:1021A000EFF8F7E70549064B4A78424008789B5C10
:1021B000584048700348805C087070475400002005
:1021C000C6280008C629000804480179002904D05F
:1021D000C068282801D900F00DBA70474C000020D3
:1021E000024908710020C860704700004C000020C0
:1021F00070B5054616460C4607A0FFF72BFAE0B26D
:1022000040F08001284600F091F8304600F076F862
:10221000BDE8704000F0A2B86D6F646275735F65D1
:102220007863657074696F6E5F7273700D0A000079
:1022300000B5FFF7C9FF0849887800280AD0074889
:102240008278120603D50279C27001224270002002
:102250008870012000BD00004C000020E800002034
:1022600070B50E461546022100F060F8304600F0C9
:1022700045F8002405E0287800F040F8641CE4B23A
:102280006D1CB442F7D3BDE8704000F067B870B57C
:102290000E461546032100F049F8304600F02EF8AE
:1022A000002409E02888000A00F028F8287800F0C7
:1022B00025F8A41CE4B2AD1CB442F3D3BDE87040D1
:1022C00000F04CB870B50E461546042100F02EF80B
:1022D000304600F013F8002409E02888000A00F0D6
:1022E0000DF8287800F00AF8A41CE4B2AD1CB44242
:1022F000F3D3BDE8704000F031B8000070B50A4C6F
:10230000054640212046FFF703F90028F9D0294669
:102310002046FFF791F92846FFF744FFBDE87040DB
:102320000820FFF77DBE00000044004070B50A4A57
:1023300004460D464FF6FF701080A2F10801002000
:1023400088701E20FFF76CFE2046FFF7D7FF284657
:10235000BDE87040FFF7D2BF5400002070B5074CB5
:1023600060782578FFF7CAFF2846FFF7C7FF1E20D1
:10237000FFF756FE4FF6FF70208070BD540000201E
:102380002DE9F840FFF754FF0028FBD0894B18785F
:10239000112801D000287CD19978874C012504F1BF
:1023A0001002052963D008DC012915D0022913D0B9
:1023B00003293BD0042906D138E006296AD00F2929
:1023C00069D0102968D001221120FFF711FFBDE864
:1023D000F8407AA0FFF73EB9187940B9987930B93A
:1023E0005879082803D2DA791318082B01D9022268
:1023F0004BE0012918D0617821FA00F18DF8001026
:10240000C2F108014FF0FF0020FA01F09DF8001022
:102410006A4600EA01008DF800004FF001014FF01C
:102420001100FFF71DFFC0E02178E5E718790028CB
:10243000DDD198790028DAD158790828D7D2DB790C
:102440001D18082DD3D8032909D05B49203101EB91
:1024500040025806010E1120FFF734FFA5E002EB01
:1024600040025806010E1120FFF711FF9DE0187978
:102470000028BCD1D8790028B9D158790828B6D815
:102480009A79FF2A0BD07AB10322BDE8F8401120D7
:1024900003E08DE016E027E065E0FFF7A9BE2178B4
:1024A00085400D43257005E0854009D00021237843
:1024B0001940217001461202112000F0E9F874E081
:1024C0000121F4E71879002891D1587908288ED293
:1024D000D9884CBA22F810409888BDE8F8404ABA2A
:1024E00041BA112000F0EAB818790028A0D19879F3
:1024F00000289DD158790828A0D2DA7910440828FC
:10250000A0D8587A00F0F0F858725979DE79002294
:102510008F191CE005FA02F6304208D0C1F1070617
:1025200094F800C005FA06F646EA0C060AE0C1F186
:10253000070C15FA0CF614D05FF0000694F800C0F2
:1025400006EA0C06491C521C2670C9B2D2B28F4250
:10255000E0D8D88842BA988841BA112000F06CF8C7
:1025600023E00126EAE71879002885D19879002828
:10257000AAD158790828AAD2DD7928440828BFD8DA
:10258000002005211D7A06E05E18B68876BA22F88A
:102590001060401C891CB0EB550FF5DBD88842BA9F
:1025A000988841BA112000F05DF8E088401CE08076
:1025B000F8BD0000E80000204C00002057652064B2
:1025C0006F6E277420737570706F727420746865F5
:1025D0002066756E6374696F6E2C20736F20726550
:1025E0007475726E20657863657074696F6E0D0A1C
:1025F000000000000E4810B4C378002200F108016A
:10260000022B03D10B880BB983784BB180F80220E1
:102610004FF6FF730B80C27010BC0020FFF7E0BDC7
:10262000044B5C78A41E5C7001238370F0E700000B
:102630004C000020E800002070B50D4614460F2124
:10264000FFF774FE280AFFF759FEE8B2FFF756FEBF
:10265000200AFFF753FEE0B2FFF750FEBDE87040DE
:10266000FFF77CBE70B50D4614461021FFF75EFEE5
:10267000280AFFF743FEE8B2FFF740FE200AFFF703
:102680003DFEE0B2FFF73AFEBDE87040FFF766BEE0
:1026900070B50D4614460521FFF748FE280AFFF7DE
:1026A0002DFEE8B2FFF72AFE200AFFF727FEE0B270
:1026B000FFF724FEBDE87040FFF750BE70B50D4631
:1026C00014460621FFF732FE280AFFF717FEE8B28C
:1026D000FFF714FE200AFFF711FEE0B2FFF70EFE2F
:1026E000BDE87040FFF73ABEC10700D0802140220C
:1026F00002EA40121143202202EAC00211431022D2
:1027000002EA40021143082202EA50021143042265
:1027100002EAD0021143022202EA5012114341EAB6
:10272000D01070472DE9FC41284801680024012998
:1027300000D1046026480168012919D16421016093
:1027400024480088FDF7F1FE234F386000F06CF854
:1027500022490860FDF7EEFE05460E463868FDF793
:10276000E9FECDE9005602460B461DA0FEF772FFBA
:102770001F480168012911D104601E491EA0FEF7FF
:1027800069FF20481B4B204A047002E05C54491C3E
:10279000017001781578A942F8D304701B480168CC
:1027A000012911D104601A491AA0FEF753FF1C48F1
:1027B000174A1C4B047002E05454491C0170017804
:1027C0001D78A942F8D30470BDE8FC810400002004
:1027D000100000203C000020200000201C000020F1
:1027E00025322E31662C25322E31660D0A0000006E
:1027F00014000020C000002055415254313A257386
:102800000D0A000000000020C42800081800002065
:10281000D400002055415254323A25730D0A00006D
:1028200001000020C52800082DE9F05F234C054673
:10283000D4E900108346FDF797FC01465846FDF7A2
:102840001DFD60612169804689462846FDF7DEFC52
:102850004146FDF7E1FC4946FDF786FC0546E06090
:10286000A068FDF767FE0E46074629464846FDF775
:10287000CDFC20F00040FDF75DFE3A463346FDF703
:10288000E2FD81468A465846FDF754FE07460E464D
:102890004046FDF74FFE0022094BFDF7D1FD3A46B9
:1028A0003346FDF7D0FD4A465346FDF725FDFDF7BB
:1028B00054FE256160602846BDE8F09F240000209A
:1028C0000000F03F141400C1814001C0804101C0EC
:1028D000804100C1814001C0804100C1814000C1F0
:1028E000814001C0804101C0804100C1814000C1E0
:1028F000814001C0804100C1814001C0804101C0D0
:10290000804100C1814001C0804100C1814000C1BF
:10291000814001C0804100C1814001C0804101C0AF
:10292000804100C1814000C1814001C0804101C09F
:10293000804100C1814001C0804100C1814000C18F
:10294000814001C0804101C0804100C1814000C17F
:10295000814001C0804100C1814001C0804101C06F
:10296000804100C1814000C1814001C0804101C05F
:10297000804100C1814001C0804100C1814000C14F
:10298000814001C0804100C1814001C0804101C03F
:10299000804100C1814001C0804100C1814000C12F
:1029A000814001C0804101C0804100C1814000C11F
:1029B000814001C0804100C1814001C0804101C00F
:1029C000804100C1814000C0C101C30302C2C606EC
:1029D00007C705C5C404CC0C0DCD0FCFCE0E0ACA57
:1029E000CB0BC90908C8D81819D91BDBDA1A1EDEA7
:1029F000DF1FDD1D1CDC14D4D515D71716D6D21257
:102A000013D311D1D010F03031F133F3F23236F666
:102A1000F737F53534F43CFCFD3DFF3F3EFEFA3A16
:102A20003BFB39F9F83828E8E929EB2B2AEAEE2EA6
:102A30002FEF2DEDEC2CE42425E527E7E62622E216
:102A4000E323E12120E0A06061A163A3A26266A666
:102A5000A767A56564A46CACAD6DAF6F6EAEAA6AD6
:102A60006BAB69A9A86878B8B979BB7B7ABABE7E26
:102A70007FBF7DBDBC7CB47475B577B7B67672B2D6
:102A8000B373B17170B05090915193535292965666
:102A90005797559594549C5C5D9D5F9F9E5E5A9A96
:102AA0009B5B99595898884849894B8B8A4A4E8E26
:102AB0008F4F8D4D4C8C4484854587474686824296
:102AC0004383418180400000E82A00080000002084
:102AD000AC00000074160008942B0008AC00002025
:102AE000A40400008416000800000100000000009B
:102AF00000000000E8030000640000003200000055
:102B00003200000000000000000000000000000093
:102B100000000000000000000000000000000000B5
:102B200000000000000000000000000000000000A5
:102B3000000000000206000000000000000000008D
:102B40000000000000880077006600550044003354
:102B500000220011001100220033004400550066DD
:102B6000007700880102040608000000000102034B
:102B700004010203040607080900000000A24A0439
:102B8000000000000000000001020304060708091D
:042B90000000000041
:0400000508000131BD
:00000001FF
